{
  "_format": "hh-sol-artifact-1",
  "contractName": "SimpleStorage",
  "sourceName": "contracts/simple-storage.sol",
  "abi": [
    {
      "inputs": [],
      "stateMutability": "nonpayable",
      "type": "constructor"
    },
    {
      "anonymous": false,
      "inputs": [
        {
          "indexed": false,
          "internalType": "string",
          "name": "newMessage",
          "type": "string"
        }
      ],
      "name": "MessageUpdated",
      "type": "event"
    },
    {
      "anonymous": false,
      "inputs": [
        {
          "indexed": true,
          "internalType": "address",
          "name": "oldOwner",
          "type": "address"
        },
        {
          "indexed": true,
          "internalType": "address",
          "name": "newOwner",
          "type": "address"
        }
      ],
      "name": "OwnerSet",
      "type": "event"
    },
    {
      "anonymous": false,
      "inputs": [
        {
          "indexed": false,
          "internalType": "uint256",
          "name": "newValue",
          "type": "uint256"
        }
      ],
      "name": "ValueUpdated",
      "type": "event"
    },
    {
      "inputs": [],
      "name": "getMessage",
      "outputs": [
        {
          "internalType": "string",
          "name": "",
          "type": "string"
        }
      ],
      "stateMutability": "view",
      "type": "function"
    },
    {
      "inputs": [],
      "name": "getValue",
      "outputs": [
        {
          "internalType": "uint256",
          "name": "",
          "type": "uint256"
        }
      ],
      "stateMutability": "view",
      "type": "function"
    },
    {
      "inputs": [],
      "name": "owner",
      "outputs": [
        {
          "internalType": "address",
          "name": "",
          "type": "address"
        }
      ],
      "stateMutability": "view",
      "type": "function"
    },
    {
      "inputs": [
        {
          "internalType": "string",
          "name": "_message",
          "type": "string"
        }
      ],
      "name": "setMessage",
      "outputs": [],
      "stateMutability": "nonpayable",
      "type": "function"
    },
    {
      "inputs": [
        {
          "internalType": "uint256",
          "name": "_value",
          "type": "uint256"
        }
      ],
      "name": "setValue",
      "outputs": [],
      "stateMutability": "nonpayable",
      "type": "function"
    }
  ],
  "bytecode": "0x6080604052348015600e575f5ffd5b505f80546001600160a01b0319163390811782556040519091907f342827c97908e5e2f71151c08502a66d44b6f758e3ac2f1de95f02eb95f0a735908290a36105938061005a5f395ff3fe608060405234801561000f575f5ffd5b5060043610610064575f3560e01c8063552410771161004d57806355241077146100935780638da5cb5b146100a6578063ce6d41de146100ea575f5ffd5b80632096525514610068578063368b87721461007e575b5f5ffd5b6001546040519081526020015b60405180910390f35b61009161008c36600461030d565b6100ff565b005b6100916100a136600461037b565b6101a1565b5f546100c59073ffffffffffffffffffffffffffffffffffffffff1681565b60405173ffffffffffffffffffffffffffffffffffffffff9091168152602001610075565b6100f261027d565b6040516100759190610392565b5f5473ffffffffffffffffffffffffffffffffffffffff1633146101565760405162461bcd60e51b81526020600482015260096024820152682737ba1037bbb732b960b91b60448201526064015b60405180910390fd5b6002610163828483610475565b507f8fae638bf5c6396194a6bb16601c4035a07fa48191638ff4102f0d96f14cfefb828260405161019592919061052f565b60405180910390a15050565b5f5473ffffffffffffffffffffffffffffffffffffffff1633146101f35760405162461bcd60e51b81526020600482015260096024820152682737ba1037bbb732b960b91b604482015260640161014d565b5f81116102425760405162461bcd60e51b815260206004820152601160248201527f56616c7565206d757374206265203e2030000000000000000000000000000000604482015260640161014d565b60018190556040518181527f4273d0736f60e0dedfe745e86718093d8ec8646ebd2a60cd60643eeced5658119060200160405180910390a150565b60606002805461028c906103f1565b80601f01602080910402602001604051908101604052809291908181526020018280546102b8906103f1565b80156103035780601f106102da57610100808354040283529160200191610303565b820191905f5260205f20905b8154815290600101906020018083116102e657829003601f168201915b5050505050905090565b5f5f6020838503121561031e575f5ffd5b823567ffffffffffffffff811115610334575f5ffd5b8301601f81018513610344575f5ffd5b803567ffffffffffffffff81111561035a575f5ffd5b85602082840101111561036b575f5ffd5b6020919091019590945092505050565b5f6020828403121561038b575f5ffd5b5035919050565b602081525f82518060208401525f5b818110156103be57602081860181015160408684010152016103a1565b505f604082850101526040601f19601f83011684010191505092915050565b634e487b7160e01b5f52604160045260245ffd5b600181811c9082168061040557607f821691505b60208210810361042357634e487b7160e01b5f52602260045260245ffd5b50919050565b601f82111561047057805f5260205f20601f840160051c8101602085101561044e5750805b601f840160051c820191505b8181101561046d575f815560010161045a565b50505b505050565b67ffffffffffffffff83111561048d5761048d6103dd565b6104a18361049b83546103f1565b83610429565b5f601f8411600181146104d2575f85156104bb5750838201355b5f19600387901b1c1916600186901b17835561046d565b5f83815260208120601f198716915b8281101561050157868501358255602094850194600190920191016104e1565b508682101561051d575f1960f88860031b161c19848701351681555b505060018560011b0183555050505050565b60208152816020820152818360408301375f818301604090810191909152601f909201601f1916010191905056fea2646970667358221220fd0a7838480e298e7f28a4a662d2b3659503b77fff364dae9207aeb6dc15b85e64736f6c634300081b0033",
  "linkReferences": {},
  "deployedLinkReferences": {}
}